:1001B4005468697320697320486F6E672120004E6C
:0F01C4006F772074696D653A2032333A35390010
:03022D00010D00C0
:0F020400D2A01201D3D2A27F051201D9C2A22229
:0F021300C2A01201D3D2A27F051201D9C2A2222A
:10019200C2A1C2A07F361202137F0F1202137F3850
:1001A2001202137F061202137F011202137F8002D2
:0201B200021336
:060167008B088A09890AD9
:10016D00E4F50BF50CAB08AA09A90A850C82850BE1
:10017D008312013AFF600D120204050CE50C70E5C7
:04018D00050B80E1FD
:01019100224B
:0601D300C2A18F907F0520
:1001D900EF6010E4FDFC0DBD00010CEDF44C70F670
:0301E9001F80ED87
:0101EC0022F0
:03000300020222D4
:0B02220020B204750D0132750D003292
:100006001201927BFF7A0179B41201677FC0120256
:10001600137BFF7A0179C3120167C280C281C28253
:10002600C283C284C285C286C287C281D2807FF45F
:100036007E011201EDC280D2817FF47E011201EDB4
:10004600C281D2827FF47E011201EDC282D2837F09
:10005600F47E011201EDC283D2847FF47E01120187
:10006600EDC284D2857FF47E011201EDC285D2866F
:100076007FF47E011201EDC286D2877FF47E0112E3
:1000860001EDD2877FF47E011201EDC2877FF47EF7
:10009600011201EDC2A37FF47E011201EDD2A37F0E
:0800A600F47E011201ED8082DD
:1001ED00D3EF9400EE9400400DE4FD0DBD7DFCEFCA
:0601FD001F70ED1E80EAF8
:0102030022D8
:030000000200AE4D
:0C00AE00787FE4F6D8FD75810D0200F5A6
:10013A00BB010CE58229F582E5833AF583E022507A
:10014A0006E92582F8E622BBFE06E92582F8E222C4
:0D015A00E58229F582E5833AF583E49322DE
:1000BA00020006E493A3F8E493A34003F68001F256
:1000CA0008DFF48029E493A3F85407240CC8C33347
:1000DA00C4540F4420C8834004F456800146F6DF16
:1000EA00E4800B010204081020408090022DE47E77
:1000FA00019360BCA3FF543F30E509541FFEE4930B
:10010A00A360010ECF54C025E060A840B8E493A3D1
:10011A00FAE493A3F8E493A3C8C582C8CAC583CAFC
:10012A00F0A3C8C582C8CAC583CADFE9DEE780BEB4
:0102300000CD
:00000001FF
